:1000000010C015C014C013C012C011C010C00FC062
:100010000EC00DC00CC00BC00AC009C008C007C08C
:1000200006C011241FBECFEDCDBFB4D0EDC1E8CFC7
:10003000982F907F8F70903A29F0903B29F4E7E356
:10004000F0E002C0EAE3F0E0908121E030E0082E29
:1000500002C0220F331F0A94E2F720952923623051
:1000600040F470E002C0660F771F8A95E2F7262BF6
:1000700020830895982F907F8F70903A29F0903BBD
:1000800029F4E8E3F0E002C0EBE3F0E0908121E046
:1000900030E0082E02C0220F331F0A94E2F72095A9
:1000A0002923623040F470E002C0660F771F8A9502
:1000B000E2F7262B2083089584E088BB82E08A95AE
:1000C000F1F700C018BA089584E088BB18BA82E03E
:1000D0008A95F1F700C0089583E280BF81E083BF75
:1000E00012BE8FE78CBF089582E087B987E886B992
:1000F00080E183B90895CF93C82F882314F4DCDFFF
:1001000001C0E2DFC6FF02C0D7DF01C0DDDFC5FFEF
:1001100002C0D2DF01C0D8DFC4FF02C0CDDF01C002
:10012000D3DFC3FF02C0C8DF01C0CEDFC2FF02C001
:10013000C3DF01C0C9DFC1FF02C0BEDF01C0C4DF31
:10014000C0FF02C0B9DF01C0BFDFCF9108950F9398
:100150001F93CF93DF93082F162FD42FC0E0CA3000
:1001600040F4802FC8DF812FC6DF8D2FC4DFCF5F23
:10017000F6CFDF91CF911F910F91089586B18064E2
:1001800086B93699FECF85B1873910F481E008959C
:1001900080E00895BF92CF92DF92EF92FF920F938B
:1001A0001F93CF93DF9361E082EB42DF61E087EA48
:1001B0003FDF60E083EA3CDF61E083EA5BDF8CDF06
:1001C00093DF2FE788E391E0215080409040E1F7F2
:1001D00000C0000000E010E0DD24DA94FF24FA946F
:1001E000EE24EA94C12CBB24B394C6E014C0C6E04C
:1001F00012C000E010E0C6E00EC0C6E00CC004E68D
:1002000010E0DD24DA94FF24FA94EE24EA94C6E0A8
:1002100002C000E010E0B2DF8823D9F38FE19EE452
:100220000197F1F700C00000A9DF811125C0C110BE
:100230000EC04D2D6F2D8E2D8ADF9FEF20E782E0BF
:10024000915020408040E1F700C000000DC040E028
:1002500060E080E07CDF9FEF20E782E0915020406B
:100260008040E1F700C0000081E0C8268FE19EE4F5
:100270000197F1F700C000000F5F1F4FC8018456BF
:100280009109409738F57ADF882309F4B1C0CB0D86
:10029000C73018F4CC2321F005C0BB24BA9402C0A7
:1002A000BB24B3949FEFB91204C0E694F694D6949D
:1002B00003C0EE0CFF0CDD0C4D2D6F2D8E2D47DF96
:1002C0002FEF80E792E0215080409040E1F700C09E
:1002D0000000A1CFC801845791098535910508F028
:1002E00082C0C0E0D0E0C11526E0D2070CF07FCF7D
:1002F00045DF882309F47DCFCF3FD10509F07CF499
:10030000FC2E40E06C2F8FEF22DF8FEC97E00197FF
:10031000F1F700C00000D12CEE24EA9462C0C115B0
:1003200092E0D90784F4EC2EE19440E06FEF8E2D3B
:100330000EDF8FEC97E00197F1F700C00000D12CA1
:10034000FF24FA944EC0C11593E0D9077CF4DC2E4B
:100350004C2F6FEF80E0FBDE8FEC97E00197F1F719
:1003600000C00000FF24FA94E12C3BC0C11594E0CA
:10037000D90784F4FC2EF1944FEF6F2D80E0E7DE77
:100380008FEC97E00197F1F700C00000DD24DA94CC
:10039000E12C27C0C11595E0D9077CF4EC2E4FEF76
:1003A00060E08C2FD4DE8FEC97E00197F1F700C06E
:1003B0000000DD24DA94F12C14C0C11596E0D907B1
:1003C0000CF01BCFDC2ED1944D2D60E08FEFBFDE03
:1003D0008FEC97E00197F1F700C00000F12CEE24BC
:1003E000EA94219680CF093C11050CF008CF13CF79
:1003F00080E090E0DF91CF911F910F91FF90EF90FF
:0C040000DF90CF90BF900895F894FFCFDC
:00000001FF
